{
  "contractName": "CharityDonation",
  "abi": [
    {
      "constant": true,
      "inputs": [],
      "name": "charity",
      "outputs": [
        {
          "name": "",
          "type": "address"
        }
      ],
      "payable": false,
      "stateMutability": "view",
      "type": "function"
    },
    {
      "constant": true,
      "inputs": [
        {
          "name": "",
          "type": "address"
        }
      ],
      "name": "donations",
      "outputs": [
        {
          "name": "",
          "type": "uint256"
        }
      ],
      "payable": false,
      "stateMutability": "view",
      "type": "function"
    },
    {
      "constant": true,
      "inputs": [],
      "name": "totalDonations",
      "outputs": [
        {
          "name": "",
          "type": "uint256"
        }
      ],
      "payable": false,
      "stateMutability": "view",
      "type": "function"
    },
    {
      "inputs": [
        {
          "name": "_charity",
          "type": "address"
        }
      ],
      "payable": false,
      "stateMutability": "nonpayable",
      "type": "constructor"
    },
    {
      "anonymous": false,
      "inputs": [
        {
          "indexed": true,
          "name": "donor",
          "type": "address"
        },
        {
          "indexed": false,
          "name": "amount",
          "type": "uint256"
        }
      ],
      "name": "DonationMade",
      "type": "event"
    },
    {
      "constant": false,
      "inputs": [],
      "name": "donate",
      "outputs": [],
      "payable": true,
      "stateMutability": "payable",
      "type": "function"
    },
    {
      "constant": true,
      "inputs": [
        {
          "name": "donor",
          "type": "address"
        }
      ],
      "name": "getDonationAmount",
      "outputs": [
        {
          "name": "",
          "type": "uint256"
        }
      ],
      "payable": false,
      "stateMutability": "view",
      "type": "function"
    },
    {
      "constant": true,
      "inputs": [],
      "name": "getTotalDonations",
      "outputs": [
        {
          "name": "",
          "type": "uint256"
        }
      ],
      "payable": false,
      "stateMutability": "view",
      "type": "function"
    }
  ],
  "bytecode": "0x608060405234801561001057600080fd5b506040516020806104c68339810180604052602081101561003057600080fd5b8101908080519060200190929190505050806000806101000a81548173ffffffffffffffffffffffffffffffffffffffff021916908373ffffffffffffffffffffffffffffffffffffffff16021790555060006001819055505061042d806100996000396000f3fe6080604052600436106100555760003560e01c80631479197f1461005a578063777c658f146100bf578063934aa023146100ea578063cc6cb19a14610141578063de2ed893146101a6578063ed88c68e146101d1575b600080fd5b34801561006657600080fd5b506100a96004803603602081101561007d57600080fd5b81019080803573ffffffffffffffffffffffffffffffffffffffff1690602001909291905050506101db565b6040518082815260200191505060405180910390f35b3480156100cb57600080fd5b506100d4610224565b6040518082815260200191505060405180910390f35b3480156100f657600080fd5b506100ff61022e565b604051808273ffffffffffffffffffffffffffffffffffffffff1673ffffffffffffffffffffffffffffffffffffffff16815260200191505060405180910390f35b34801561014d57600080fd5b506101906004803603602081101561016457600080fd5b81019080803573ffffffffffffffffffffffffffffffffffffffff169060200190929190505050610253565b6040518082815260200191505060405180910390f35b3480156101b257600080fd5b506101bb61026b565b6040518082815260200191505060405180910390f35b6101d9610271565b005b6000600260008373ffffffffffffffffffffffffffffffffffffffff1673ffffffffffffffffffffffffffffffffffffffff168152602001908152602001600020549050919050565b6000600154905090565b6000809054906101000a900473ffffffffffffffffffffffffffffffffffffffff1681565b60026020528060005260406000206000915090505481565b60015481565b600034116102ca576040517f08c379a00000000000000000000000000000000000000000000000000000000081526004018080602001828103825260228152602001806103e06022913960400191505060405180910390fd5b6000809054906101000a900473ffffffffffffffffffffffffffffffffffffffff1673ffffffffffffffffffffffffffffffffffffffff166108fc349081150290604051600060405180830381858888f19350505050158015610331573d6000803e3d6000fd5b5034600260003373ffffffffffffffffffffffffffffffffffffffff1673ffffffffffffffffffffffffffffffffffffffff16815260200190815260200160002060008282540192505081905550346001600082825401925050819055503373ffffffffffffffffffffffffffffffffffffffff167faa13962bc79c7a0bc42cb8169b1705f0a6b55cc404ffb8a589d771ca78675978346040518082815260200191505060405180910390a256fe446f6e6174696f6e206d7573742062652067726561746572207468616e207a65726fa165627a7a72305820910ca16692a9c7037731ce6fa174fe39a4ec6488e91c1c55c84848bdb383df240029",
  "source": "// SPDX-License-Identifier: MIT\npragma solidity ^0.5.8;\n\ncontract CharityDonation {\n    address payable public charity;\n    uint256 public totalDonations;\n    mapping(address => uint256) public donations;\n\n    event DonationMade(address indexed donor, uint256 amount);\n\n    constructor(address payable _charity) public {\n        charity = _charity;\n        totalDonations = 0; \n    }\n\n    function donate() public payable {\n        require(msg.value > 0, \"Donation must be greater than zero\");\n\n        // Transfer donation to charity\n        charity.transfer(msg.value);\n        \n        // Update records\n        donations[msg.sender] += msg.value;\n        totalDonations += msg.value;\n\n        emit DonationMade(msg.sender, msg.value);\n    }\n\n    function getDonationAmount(address donor) public view returns (uint256) {\n        return donations[donor];\n    }\n\n    function getTotalDonations() public view returns (uint256) {\n        return totalDonations;\n    }\n}\n",
  "sourcePath": "/Users/ravindra/Charu/BCmini/smart-contract-donations/contracts/CharityDonation.sol",
  "compiler": {
    "name": "solc",
    "version": "0.5.8+commit.23d335f2.Emscripten.clang"
  },
  "schemaVersion": "3.4.16",
  "updatedAt": "2024-10-06T16:57:14.037Z",
  "networkType": "ethereum",
  "devdoc": {
    "methods": {}
  },
  "userdoc": {
    "methods": {}
  }
}