{
  "contractName": "Charitable",
  "abi": [
    {
      "inputs": [
        {
          "name": "addresses_",
          "type": "address[]"
        }
      ],
      "payable": false,
      "stateMutability": "nonpayable",
      "type": "constructor"
    },
    {
      "anonymous": false,
      "inputs": [
        {
          "indexed": true,
          "name": "_donor",
          "type": "address"
        },
        {
          "indexed": false,
          "name": "_value",
          "type": "uint256"
        }
      ],
      "name": "Donation",
      "type": "event"
    },
    {
      "constant": false,
      "inputs": [
        {
          "name": "destinationAddress",
          "type": "address"
        },
        {
          "name": "charityIndex",
          "type": "uint256"
        },
        {
          "name": "donationAmount",
          "type": "uint256"
        }
      ],
      "name": "deposit",
      "outputs": [],
      "payable": true,
      "stateMutability": "payable",
      "type": "function"
    },
    {
      "constant": false,
      "inputs": [
        {
          "name": "destinationAddress",
          "type": "address"
        },
        {
          "name": "charityIndex",
          "type": "uint256"
        }
      ],
      "name": "deposit",
      "outputs": [],
      "payable": true,
      "stateMutability": "payable",
      "type": "function"
    },
    {
      "constant": true,
      "inputs": [],
      "name": "getAddresses",
      "outputs": [
        {
          "name": "",
          "type": "address[]"
        }
      ],
      "payable": false,
      "stateMutability": "view",
      "type": "function"
    },
    {
      "constant": true,
      "inputs": [],
      "name": "getTotalDonationsAmount",
      "outputs": [
        {
          "name": "",
          "type": "uint256"
        }
      ],
      "payable": false,
      "stateMutability": "view",
      "type": "function"
    },
    {
      "constant": true,
      "inputs": [],
      "name": "getHighestDonation",
      "outputs": [
        {
          "name": "",
          "type": "uint256"
        },
        {
          "name": "",
          "type": "address"
        }
      ],
      "payable": false,
      "stateMutability": "view",
      "type": "function"
    },
    {
      "constant": false,
      "inputs": [],
      "name": "destroy",
      "outputs": [],
      "payable": false,
      "stateMutability": "nonpayable",
      "type": "function"
    }
  ],
  "bytecode": "0x608060405234801561001057600080fd5b50604051610d7e380380610d7e8339810180604052602081101561003357600080fd5b81019080805164010000000081111561004b57600080fd5b8281019050602081018481111561006157600080fd5b815185602082028301116401000000008211171561007e57600080fd5b5050929190505050336000806101000a81548173ffffffffffffffffffffffffffffffffffffffff021916908373ffffffffffffffffffffffffffffffffffffffff16021790555080600190805190602001906100dc9291906100f3565b5060006002819055506000600381905550506101c0565b82805482825590600052602060002090810192821561016c579160200282015b8281111561016b5782518260006101000a81548173ffffffffffffffffffffffffffffffffffffffff021916908373ffffffffffffffffffffffffffffffffffffffff16021790555091602001919060010190610113565b5b509050610179919061017d565b5090565b6101bd91905b808211156101b957600081816101000a81549073ffffffffffffffffffffffffffffffffffffffff021916905550600101610183565b5090565b90565b610baf806101cf6000396000f3fe6080604052600436106100555760003560e01c80630efe6a8b1461005a578063141b8809146100b257806347e7ef24146100dd57806383197ef01461012b578063a39fac1214610142578063efb349af146101ae575b600080fd5b6100b06004803603606081101561007057600080fd5b81019080803573ffffffffffffffffffffffffffffffffffffffff169060200190929190803590602001909291908035906020019092919050505061020c565b005b3480156100be57600080fd5b506100c7610569565b6040518082815260200191505060405180910390f35b610129600480360360408110156100f357600080fd5b81019080803573ffffffffffffffffffffffffffffffffffffffff16906020019092919080359060200190929190505050610573565b005b34801561013757600080fd5b50610140610864565b005b34801561014e57600080fd5b50610157610943565b6040518080602001828103825283818151815260200191508051906020019060200280838360005b8381101561019a57808201518184015260208101905061017f565b505050509050019250505060405180910390f35b3480156101ba57600080fd5b506101c36109d1565b604051808381526020018273ffffffffffffffffffffffffffffffffffffffff1673ffffffffffffffffffffffffffffffffffffffff1681526020019250505060405180910390f35b828073ffffffffffffffffffffffffffffffffffffffff163373ffffffffffffffffffffffffffffffffffffffff161415610292576040517f08c379a0000000000000000000000000000000000000000000000000000000008152600401808060200182810382526028815260200180610aa86028913960400191505060405180910390fd5b600034116102eb576040517f08c379a0000000000000000000000000000000000000000000000000000000008152600401808060200182810382526029815260200180610b186029913960400191505060405180910390fd5b826001808054905003811115610369576040517f08c379a00000000000000000000000000000000000000000000000000000000081526004018080602001828103825260168152602001807f496e76616c6964206368617269747920696e6465782e0000000000000000000081525060200191505060405180910390fd5b826064348161037457fe5b04811015801561038e57506002348161038957fe5b048111155b6103e3576040517f08c379a0000000000000000000000000000000000000000000000000000000008152600401808060200182810382526048815260200180610ad06048913960600191505060405180910390fd5b60008434039050600186815481106103f757fe5b9060005260206000200160009054906101000a900473ffffffffffffffffffffffffffffffffffffffff1673ffffffffffffffffffffffffffffffffffffffff166108fc869081150290604051600060405180830381858888f19350505050158015610467573d6000803e3d6000fd5b508673ffffffffffffffffffffffffffffffffffffffff166108fc829081150290604051600060405180830381858888f193505050501580156104ae573d6000803e3d6000fd5b503373ffffffffffffffffffffffffffffffffffffffff167f5d8bc849764969eb1bcc6d0a2f55999d0167c1ccec240a4f39cf664ca9c4148e866040518082815260200191505060405180910390a284600260008282540192505081905550600354851115610560578460038190555033600460006101000a81548173ffffffffffffffffffffffffffffffffffffffff021916908373ffffffffffffffffffffffffffffffffffffffff1602179055505b50505050505050565b6000600254905090565b818073ffffffffffffffffffffffffffffffffffffffff163373ffffffffffffffffffffffffffffffffffffffff1614156105f9576040517f08c379a0000000000000000000000000000000000000000000000000000000008152600401808060200182810382526028815260200180610aa86028913960400191505060405180910390fd5b60003411610652576040517f08c379a0000000000000000000000000000000000000000000000000000000008152600401808060200182810382526029815260200180610b186029913960400191505060405180910390fd5b8160018080549050038111156106d0576040517f08c379a00000000000000000000000000000000000000000000000000000000081526004018080602001828103825260168152602001807f496e76616c6964206368617269747920696e6465782e0000000000000000000081525060200191505060405180910390fd5b6000600a34816106dc57fe5b04905060008134039050600185815481106106f357fe5b9060005260206000200160009054906101000a900473ffffffffffffffffffffffffffffffffffffffff1673ffffffffffffffffffffffffffffffffffffffff166108fc839081150290604051600060405180830381858888f19350505050158015610763573d6000803e3d6000fd5b508573ffffffffffffffffffffffffffffffffffffffff166108fc829081150290604051600060405180830381858888f193505050501580156107aa573d6000803e3d6000fd5b503373ffffffffffffffffffffffffffffffffffffffff167f5d8bc849764969eb1bcc6d0a2f55999d0167c1ccec240a4f39cf664ca9c4148e836040518082815260200191505060405180910390a28160026000828254019250508190555060035482111561085c578160038190555033600460006101000a81548173ffffffffffffffffffffffffffffffffffffffff021916908373ffffffffffffffffffffffffffffffffffffffff1602179055505b505050505050565b6000809054906101000a900473ffffffffffffffffffffffffffffffffffffffff1673ffffffffffffffffffffffffffffffffffffffff163373ffffffffffffffffffffffffffffffffffffffff1614610909576040517f08c379a0000000000000000000000000000000000000000000000000000000008152600401808060200182810382526043815260200180610b416043913960600191505060405180910390fd5b6000809054906101000a900473ffffffffffffffffffffffffffffffffffffffff1673ffffffffffffffffffffffffffffffffffffffff16ff5b606060018054806020026020016040519081016040528092919081815260200182805480156109c757602002820191906000526020600020905b8160009054906101000a900473ffffffffffffffffffffffffffffffffffffffff1673ffffffffffffffffffffffffffffffffffffffff168152602001906001019080831161097d575b5050505050905090565b6000806000809054906101000a900473ffffffffffffffffffffffffffffffffffffffff1673ffffffffffffffffffffffffffffffffffffffff163373ffffffffffffffffffffffffffffffffffffffff1614610a79576040517f08c379a0000000000000000000000000000000000000000000000000000000008152600401808060200182810382526043815260200180610b416043913960600191505060405180910390fd5b600354600460009054906101000a900473ffffffffffffffffffffffffffffffffffffffff1691509150909156fe53656e64657220616e6420726563697069656e742063616e6e6f74206265207468652073616d652e446f6e6174696f6e20616d6f756e742068617320746f2062652066726f6d20312520746f20353025206f662074686520746f74616c207472616e7366657272656420616d6f756e745472616e7366657220616d6f756e742068617320746f2062652067726561746572207468616e20302e4d6574686f6420617661696c61626c65206f6e6c7920746f2074686520746f2074686520757365722074686174206465706c6f7965642074686520636f6e7472616374a165627a7a72305820fcd65c291b89960ce90cd5a74fc19546db2da43441d3326ba0e793ffb7f683e20029",
  "source": "pragma solidity ^0.5.8;\n\n/// @title A contract that is able to facilitate donations to different charities\n/// whenever a user wants to make a transfer of funds to another user.\ncontract Charitable {\n    address payable owner;\n    address payable[] charityAddresses;\n    uint256 totalDonationsAmount;\n    uint256 highestDonation;\n    address payable highestDonor;\n\n    /// @param addresses_ The list of charity addresses to store in order to send donations to.\n    constructor(address payable[] memory addresses_) public {\n        owner = msg.sender;\n        charityAddresses = addresses_;\n        totalDonationsAmount = 0;\n        highestDonation = 0;\n    }\n\n    /// Restricts the access only to the user who deployed the contract.\n    modifier restrictToOwner() {\n        require(msg.sender == owner, 'Method available only to the to the user that deployed the contract');\n        _;\n    }\n\n    /// Validates that the sender originated the transfer is different than the target destination.\n    modifier validateDestination(address payable destinationAddress) {\n        require(msg.sender != destinationAddress, 'Sender and recipient cannot be the same.');\n        _;\n    }\n\n    //// Validates that the charity index number provided is a valid one.\n    ///\n    /// @param charityIndex The target charity index to validate. Indexes start from 0 and increment by 1.\n    modifier validateCharity(uint256 charityIndex) {\n        require(charityIndex <= charityAddresses.length - 1, 'Invalid charity index.');\n        _;\n    }\n\n    /// Validates that the amount to transfer is not zero.\n    modifier validateTransferAmount() {\n        require(msg.value > 0, 'Transfer amount has to be greater than 0.');\n        _;\n    }\n\n    /// Validates that the donated amount is within acceptable limits.\n    ///\n    /// @param donationAmount The target donation amount.\n    /// @dev donated amount >= 1% of the total transferred amount and <= 50% of the total transferred amount.\n    modifier validateDonationAmount(uint256 donationAmount) {\n        require(donationAmount >= msg.value / 100 && donationAmount <= msg.value / 2,\n            'Donation amount has to be from 1% to 50% of the total transferred amount');\n        _;\n    }\n\n    /// Transmits the address of the donor and the amount donated.\n    event Donation(\n        address indexed _donor,\n        uint256 _value\n    );\n\n    /// Redirects 10% of the total transferred funds to the target charity and transfers the rest to the target address.\n    /// Whenever a transfer of funds is complete, it emits the event `Donation`.\n    ///\n    /// @param destinationAddress The target address to send fund to.\n    /// @param charityIndex The target index of the charity to send the 10% of the funds.\n    function deposit(address payable destinationAddress, uint256 charityIndex) public validateDestination(destinationAddress)\n    validateTransferAmount() validateCharity(charityIndex) payable {\n        uint256 donationAmount = msg.value / 10;\n        uint256 actualDeposit = msg.value - donationAmount;\n\n        charityAddresses[charityIndex].transfer(donationAmount);\n        destinationAddress.transfer(actualDeposit);\n\n        emit Donation(msg.sender, donationAmount);\n\n        totalDonationsAmount += donationAmount;\n\n        if (donationAmount > highestDonation) {\n            highestDonation = donationAmount;\n            highestDonor = msg.sender;\n        }\n    }\n\n    /// Redirects the specified amount to the target charity and transfers the rest to the target address.\n    /// Whenever a transfer of funds is complete, it emits the event `Donation`.\n    ///\n    /// @param destinationAddress The target address to send fund to.\n    /// @param charityIndex The target index of the charity to send the specified amount.\n    /// @param donationAmount The amount to send to the target charity.\n    function deposit(address payable destinationAddress, uint256 charityIndex, uint256 donationAmount) public\n    validateDestination(destinationAddress) validateTransferAmount() validateCharity(charityIndex)\n    validateDonationAmount(donationAmount) payable {\n        uint256 actualDeposit = msg.value - donationAmount;\n\n        charityAddresses[charityIndex].transfer(donationAmount);\n        destinationAddress.transfer(actualDeposit);\n\n        emit Donation(msg.sender, donationAmount);\n\n        totalDonationsAmount += donationAmount;\n\n        if (donationAmount > highestDonation) {\n            highestDonation = donationAmount;\n            highestDonor = msg.sender;\n        }\n    }\n\n    /// Returns all the available charity addresses.\n    /// @return charityAddresses\n    function getAddresses() public view returns (address payable[] memory) {\n        return charityAddresses;\n    }\n\n    /// Returns the total amount raised by all donations (in wei) towards any charity.\n    /// @return totalDonationsAmount\n    function getTotalDonationsAmount() public view returns (uint256) {\n        return totalDonationsAmount;\n    }\n\n    /// Returns the address that made the highest donation, along with the amount donated.\n    /// @return (highestDonation, highestDonor)\n    function getHighestDonation() public view restrictToOwner() returns (uint256, address payable)  {\n        return (highestDonation, highestDonor);\n    }\n\n    // Destroys the contract and renders it unusable.\n    function destroy() public restrictToOwner() {\n        selfdestruct(owner);\n    }\n}",
  "sourcePath": "/Users/ravindra/Charu/BCmini/smart-contract-donations/contracts/Charitable.sol",
  "compiler": {
    "name": "solc",
    "version": "0.5.8+commit.23d335f2.Emscripten.clang"
  },
  "schemaVersion": "3.4.16",
  "updatedAt": "2024-10-06T16:35:19.441Z",
  "networkType": "ethereum",
  "devdoc": {
    "methods": {
      "constructor": {
        "params": {
          "addresses_": "The list of charity addresses to store in order to send donations to."
        }
      },
      "deposit(address,uint256)": {
        "params": {
          "charityIndex": "The target index of the charity to send the 10% of the funds.",
          "destinationAddress": "The target address to send fund to."
        }
      },
      "deposit(address,uint256,uint256)": {
        "params": {
          "charityIndex": "The target index of the charity to send the specified amount.",
          "destinationAddress": "The target address to send fund to.",
          "donationAmount": "The amount to send to the target charity."
        }
      },
      "getAddresses()": {
        "return": "charityAddresses"
      },
      "getHighestDonation()": {
        "return": "(highestDonation, highestDonor)"
      },
      "getTotalDonationsAmount()": {
        "return": "totalDonationsAmount"
      }
    },
    "title": "A contract that is able to facilitate donations to different charities whenever a user wants to make a transfer of funds to another user."
  },
  "userdoc": {
    "methods": {
      "deposit(address,uint256)": {
        "notice": "Redirects 10% of the total transferred funds to the target charity and transfers the rest to the target address. Whenever a transfer of funds is complete, it emits the event `Donation`. "
      },
      "deposit(address,uint256,uint256)": {
        "notice": "Redirects the specified amount to the target charity and transfers the rest to the target address. Whenever a transfer of funds is complete, it emits the event `Donation`. "
      },
      "getAddresses()": {
        "notice": "Returns all the available charity addresses."
      },
      "getHighestDonation()": {
        "notice": "Returns the address that made the highest donation, along with the amount donated."
      },
      "getTotalDonationsAmount()": {
        "notice": "Returns the total amount raised by all donations (in wei) towards any charity."
      }
    }
  }
}